:040000008A152F2905
:06000600000000000800EC
:10000C00FB14FB1F1028FF30F300F200F100F0008E
:08001C00FA0DF20CFF300800A0
:08002400FA1FF213003008007E
:10002C007B15FB1F20280130F300F201F101F001D8
:08003C00FA0DF20CFF30080080
:0E004400213083120313FD00FD0B2628080057
:100052000F3083120313FC004730FD00FD0B2F28E5
:0A006200FC0B2F280000000008002E
:0E006C00F201F101F001F801F301003008008B
:10007A0083120313F801F9011030FC00710DF80D19
:10008A00F90D7408F8027508031C750FF9020318B4
:10009A0055287408F80775080318750FF90703102F
:0A00AA00F00DF10DFC0B43280800D7
:1000B4007B14FB1F6528F201FA1FFF30F200F100E8
:0A00C400F000FA0DF20CFF30080006
:1000CE0083120313F101F201831647087202031D16
:1000DE0072284608710203188628F301F4010030D5
:1000EE007402031D7C289B30730203188228F30AC6
:1000FE000319F40A7628F10A0319F20A6B2808008C
:10010E0083160313C61B8E2883128813902883121E
:10011E0088178316461B9628831208139828831275
:10012E0008178316C61A9E2883128812A0288312D7
:10013E0088168316461AA62883120812A828831238
:10014E0008166F18AC280814AD2808108814032060
:10015E0088108316C619B62883128813B8288312FE
:10016E00881783164619BE2883120813C0288312D7
:10017E0008178316C618C62883128812C828831239
:10018E00881683164618CE2883120812D02883129A
:10019E0008166F18D4280814D528081088140320C0
:0E01AE0088106F1CDC282920DD282220080084
:1001BC00A0017208031DF3287108F2007008F10009
:1001CC00F001A0157208031DF3287108F200F1016B
:1001DC00A01120167208031901292008F302031D2F
:1001EC00031C05290310F21B0929F00DF10DF20D6A
:1001FC00F30BF92805290130FC0036200C290230BC
:0E020C00FC0016200C290430FC001220080013
:06021A00FB15FF30080097
:100220007C184629FC1817297C1965291029A0017A
:100230007208031D37297108F2007008F100780870
:10024000F000F801A0157208031D37297108F200AB
:100250007008F100F001A01120167208031D372963
:100260007108F200F101A01572080319592920083C
:10027000F302031D031C5D290310F21B4629F80D30
:10028000F00DF10DF20DF30B3D295D297B1B701C68
:100290006129F81F6129F00A0319F10A0319F20A0A
:1002A000031D6129F20CF10CF00CF30A0319652906
:1002B00061290130FC00362068290230FC0016203C
:1002C00068290430FC00122068290830FC00062050
:0402D0000000080022
:1002D40083120313FB017308031D77080319C12953
:1002E40072087606FA007708F3077E30031C7E292D
:1002F400F3020318C4298129F302031CC7297208D5
:10030400F8007108FC007008FD00F817F6170310D8
:10031400F201F101F0011830A0007D1C9B29740842
:10032400F00775080318750FF10776080318760FA0
:10033400F207F20CF10CF00CF80CFC0CFD0C0310A1
:10034400A00B8F29F21BAB29F80DF00DF10DF20D66
:10035400F3037B1B701CBD29F81FBD29F00A031988
:10036400F10A0319F20A031DBD29F20CF10CF00C79
:10037400F30A0319C429FA1FF2130030C929013002
:100384003620C92902300620C9290430162000006D
:0203940008005F
:10039600831203137408003A031DE6297508003A10
:1003A600031DE6297608003A031DE6297708003A78
:1003B600031DE629FF30F000FF30F1007F30F20028
:1003C600FF30F300812A8312031377080319752A75
:1003D60073080319782A720876068039FA00F2172C
:1003E600F617A0017208F8007108FC007008FD00FD
:1003F6007408FD027508031C750FFC027608031CC1
:10040600760FF802F801FC01FD01031C112A031006
:10041600F20CF10CF00CF80C0130A0007708F30296
:10042600031C1B2A7E302007F30703187B2A202A89
:100436007E302007F307031C7E2A1830FA07FD0DCD
:10044600FC0DF80DF00DF10DF20DA00D7408F00283
:100456007508031C750FF1027608031C760FF2026D
:10046600760DA004201C392A7D14442A7408F0074E
:1004760075080318750FF10776080318760AF20750
:100486007D10FA031F307A05031D222A7B1B7D1C73
:100496006B2A0310F00DF10DF20DA00D7408F00299
:1004A6007508031C750FF1027608031C760FF2021D
:1004B600760D20040139FD070318FC0A0319F80A12
:1004C600031D6B2AF80CFC0CFD0CF30A03197B2A9E
:1004D600FA1FF8137808F2007C08F1007D08F00096
:1004E6000030802A01300D21802A02303620802AF1
:0E04F60004300620802A08301620000008007E
:10050400831203136F1083164108C60087206F14EB
:020514000800DD
:1005160083120313FB0173080319C82A7208FA0031
:10052600F2178E30F302F31FCB2AF309F30A0830D1
:100536007302031CAE2AF300F10D7208F100F201FA
:1005460008307302031CAE2AF300F10DF1017308A3
:10055600031D0310B62A73080319B62A0310F20CFA
:10056600F10CF30BB12A7B1B711CC02A031CC02A99
:10057600F10A0319F20AF21BD72AFA1FDA2AF2093C
:10058600F109F10A0319F20ADA2AF201F101DA2A6B
:100596007B14FB1FDD2AF201FA1FDD2AFF30F20071
:1005A600F100FA0DF20CDD2A0130FC00DF2A0030E2
:1005B600FC00DF2AFF30FC00FC080319E32A5A205E
:0A05C6007108F0007208F10008004F
:0E05D000831203136C088A006B088200080077
:1005DE00831203137008F8007108F000F101F201A4
:1005EE00F301FB01FC019630F300FA017008F100F3
:0C05FE007808F000F801F201DE2008008F
:10060A008312031372087606A000F801F901730831
:10061A007702031C282B7708FD007308F7007D0872
:10062A00F3007608FD007208F6007D08F2007508EE
:10063A00FD007108F5007D08F1007408FD007008DE
:10064A00F4007D08F00077080319A12B7208FA005C
:10065A00F217F61777087302F70003195B2B0830B5
:10066A007702031C512BF7007408F9007508F4008F
:10067A007608F500F60108307702031C512BF700C3
:10068A007408F9007508F400F50108307702031CB4
:10069A00512B7A08F200A12B770803195B2B031060
:1006AA00F60CF50CF40CF90CF70B542BA01F682B65
:1006BA00F909F409F509F609F90A0319F40A0319FB
:1006CA00F50A0319F60A7908F80774080318740F6B
:1006DA00F00775080318750FF10776080318760FE7
:1006EA00F207A01B812B031C912BF20CF10CF00CCE
:1006FA00F80CF30F912B9D2B0318952BF809F00991
:10070A00F109F209F80A0319F00A0319F10A03199F
:10071A00F20A8030FA06992B0130FC001021A32B33
:10072A000230FC001021A32B0430FC00DE20A32B96
:10073A000830FC000620A32B0030FC000000080053
:10074A00323083160313C6000030C7006720C73053
:10075A00831203139F0532308316C6000030C70088
:10076A0067204130831203139F001F151F1DBE2BE4
:10077A00BB2B1E08F100F00183161E08F00400309E
:04078A00F10408006E
:10078E0083120313FA017308031D7A147708031DED
:10079E00FA147A080319132C033A0319DE2B7A186C
:1007AE00DB2BF61F112C0F2CF21F0F2C112C7208A5
:1007BE008039FA00F21376088039F6137A06031997
:1007CE00EC2B7A0803190F2C112C770873020319DE
:1007DE00F32B031C072C0B2C760872020319FA2B31
:1007EE00031C072C0B2C750871020319012C031C1A
:1007FE00072C0B2C740870020319132C03180B2CE6
:10080E00FA080319112C0F2CFA0803190F2C112CAE
:10081E000314080003100800031403150800080051
:10082E0083120313F101F201831642087202031DB3
:10083E00222C4108710203182A2C00000000F10A34
:08084E000319F20A1B2C08003B
:10085600831203137008F8007108F000F101F20129
:10086600F301FB01FC019630F300FA01F01F412C65
:10087600F809F009F80A0319F00AFA177008F100E6
:0C0886007808F000F801F201DE20080004
:1008920083120313FD01F801700803190034740672
:1008A200FA00FA1BFD09FB01F41F592CF409F40AA2
:1008B200F01F5D2CF009F00A70087404FA00FA1BAC
:1008C200812C7408F802F00D700DF80D7408F80709
:1008D200F00D0630FC00700DF80D74087018F80267
:1008E200701CF807F00DFC0B6C2C701CF8077B18C1
:1008F2008F2CFD1F0034F009F00AF809F80A0034C1
:10090200F41F8C2CF01B892C7008F800F0017A2C53
:10091200F001F00A0034F009FB0A622CF80A7408AC
:100922007802031D7A2CF801F00AF01F7A2CFF34AA
:020932000800BB
:10093400831603134108F2007208F100F20A420818
:10094400F000C20A700884000008F00071088400F6
:10095400700880007108840000080319B22C9E2CD2
:060964004108F00008004C
:10096A00323083160313C6000030C7006720C73031
:10097A00831203139F0532308316C6000030C70066
:10098A0067204930831203139F001F151F1DCE2CA9
:10099A00CB2C1E08F100F00183161E08F00400306B
:0409AA00F10408004C
:1009AE0083160313C401053044020318E52C4408D2
:1009BE004307840020308000C40ADA2C4408430721
:1009CE0084008001C40344084307C5000A30F400C4
:1009DE00F5014108F0004208F1003D207808F000D2
:1009EE007908F1003030F00783164508840070084E
:1009FE0080000A30F400F5014108F0004208F100D1
:100A0E003D2070088316C1007108C20000307106C7
:100A1E00031D132D00307006031D162D182DC40353
:040A2E00EA2C0800A6
:100A3200831203138F018E01023086000A3083165F
:100A4200C1000030C20017248312860106192A2D24
:100A5200272D1014061D2E2D2B2DFE3090050F086C
:100A6200F100F0010E08F0040030F1047008831662
:100A7200A0007108A1002B24AE30F4004730F5002D
:100A82006B30F6008430F700CB210030F4000030E8
:100A9200F5000030F6008030F700CB218B22700881
:0A0AA2008316A0007108A1000800EF
:100AAC0083160313BF01C0013408BB003508BC001A
:100ABC003608BD003708BE003E08FF3A031D702DF6
:100ACC003D08FF3A031D702D3C08FF3A031D702DA5
:100ADC003B08FF3A031D7A2D3808C1002730C200AD
:100AEC009A240330F0005B2F0130B900BD1F892D13
:100AFC0080303D06F0007008BD00B90A380884004B
:100B0C002D308000B80A0030F0003E06031D982DF1
:100B1C0070083D06031D982D70083C06031D982D8A
:100B2C003B08003A031DA12D3808C1004430C20017
:100B3C009A24F0015B2F3E08FF3A031DAF2D3D08B0
:100B4C00003A031DAF2D3C08003A031DAF2D3B08A6
:100B5C00003A031DB92D3808C1004030C2009A2458
:100B6C003908F0005B2F0030F4000030F500003045
:100B7C00F6007F30F7003B08F0003C08F1003D0820
:100B8C00F2003E08F300C723013003180030F000D8
:100B9C0070080319EE2D83163B08F0003C08F10099
:100BAC003D08F2003E08F3000030F4000030F50080
:100BBC002030F6008230F7006A2170088316BB00E3
:100BCC007108BC007208BD007308BE00C003B92DCB
:100BDC0083160030F4000030F5002030F60082302F
:100BEC00F7003B08F0003C08F1003D08F2003E081D
:100BFC00F300C7230130031C0030F0007008031908
:100C0C00242E83163B08F0003C08F1003D08F2004E
:100C1C003E08F300CD30F400CC30F5004C30F6003B
:100C2C007B30F7006A2170088316BB007108BC008A
:100C3C007208BD007308BE00C00AEE2D8316FF308B
:100C4C003B05F800FF303C05F9007F303D05FA000C
:100C5C0000303E05FB007808F4007908F5007A08AE
:100C6C00F6007B08F700F40DF50DF60DF70D74107A
:100C7C0000303B05F00000303C05F10000303D0534
:100C8C00F200FF303E05F3007008BB007108BC0099
:100C9C007208BD007308BE0074083B04F0007508B0
:100CAC003C04F10076083D04F20077083E04F300A2
:100CBC007008BB007108BC007208BD007308BE0050
:100CCC007F303E02F0007008BA000130BE007008A0
:100CDC00F4003B08F0003C08F1003D08F2003E082F
:100CEC00F30074080319812EF00DF10DF20DF30DC4
:100CFC007010FF3E782E7008BB007108BC007208A3
:100D0C00BD007308BE003E08303EF0003808840079
:100D1C0070088000B80A80304006F0008030013A3C
:100D2C007002031CA22E8030063AF0008030400680
:100D3C007002031CA22EA92E380884002E308000CD
:100D4C00B80A0130BF000630BA003A08003A03195D
:100D5C00072FBE013B08F0003C08F1003D08F200F3
:100D6C003E08F300F00DF10DF20DF30D7010F00DC7
:100D7C00F10DF20DF30D70103B08F0073C08031851
:100D8C003C0FF1073D0803183D0FF2073E0803180E
:100D9C003E0FF3077008BB007108BC007208BD0061
:100DAC007308BE003B08F0003C08F1003D08F2005F
:100DBC003E08F300F00DF10DF20DF30D70107008FC
:100DCC00BB007108BC007208BD007308BE003E0871
:100DDC00303EF0003808840070088000B80A3F08E4
:100DEC00003A031D052FC0034008003A031D052FD0
:100DFC00380884002E308000B80A0130BF00BA03D6
:100E0C00AB2EFF30380784000008303A031D102F3A
:100E1C00B803072FFF303807840000082E3A031D53
:100E2C00182FB8034008003A0319572F38088400CC
:100E3C0065308000B80A80304006F0008030003AFF
:100E4C0070020318312F380884002D308000B80A46
:100E5C004008003CC0004008BA008030093AF0005D
:100E6C008030400670020318482F0A30F4003A080C
:100E7C00F00049243030F0078316380884007008DD
:100E8C008000B80A0A30F4003A08F00049247808C7
:100E9C00F0003030F00783163808840070088000AA
:0C0EAC00B80A380884008001F00108003A
:0E0EB800B52470088312E5007108E6000800FA
:100EC60083160313B501B6013408F2003408F300A3
:100ED600720884000008203A031D762F3508360470
:100EE600031D762F832F0130B5000030B60072083F
:100EF60084000008F0007308840070088000F30A7C
:100F06007208F100F20A710884000008003A031D15
:080F16006B2F3408F000080005
:100F1E00A523EF227008E7007108E8007208E900C7
:100F2E007308EA00F630F4002830F5001C30F600A5
:100F3E008130F7006A210030F4000030F5002030D7
:100F4E00F6008230F700CB210030F4000030F500BF
:100F5E000030F6007F30F70005237008E7007108B7
:0C0F6E00E8007208E9007308EA000800BF
:100F7A00E8228A110A128000840AEB0A0319EC0A91
:080F8A00F003031DBD2F080058
:100F940021308400443083120313F0003D30EB0011
:080FA4000B30EC00BD27080032
:1010000083160313B901BA013408BB003508BC00CC
:1010100080303506F00080307002031D112800304A
:10102000340203181F280130B9000030BA00340818
:10103000003CBB003508031C013EBC01BC023B0860
:10104000C1003C08C2003608C3008A11D7248A15A3
:101050000630B7000030B8003808003C031D3228C5
:101060003708003C03184D2837083607F2000130D6
:101070003702F0000030031C013E3802F100700816
:10108000360784000008F0007208840070088000B1
:101090000130B702031CB8032C2836088400203026
:1010A000800039083A0403196B28B701B8013708E2
:1010B000360784000008203A031D6228B70A031986
:1010C000B80A57280130B702031CB803370836079F
:0810D00084002D3080000800AF
:1010D8007E28803083160313B4009128C030B400F2
:1010E80091289430B4009128D430B40091288030ED
:1010F800B4009128831603133408013A03196D28A4
:101108003408023A031972283408033A0319752877
:101118003408043A031978287B283503F00034088A
:10112800F0077008B4007008C6008A1187208A1575
:101138006F108316B70137083607840000080319B3
:10114800B0283708360784000008C1008A118222B7
:0E1158008A158316B70A9F2883126F140800A9
:1011660083160313881008100812881208138813B0
:1011760083128810081088130813881208128A111F
:1011860029208A158A1129208A158A1129208A156B
:101196008816081688148A1103208A1588108A1161
:1011A60029208A1588148A1103208A1588108A1125
:1011B60029208A1588148A1103208A1588108A1115
:1011C60029208A15081288148A1103208A15881086
:1011D6008A1129208A1588148A1103208A158810F5
:1011E6008812881788148A1103208A1588108A1194
:1011F60029208A158813081688148A1103208A154F
:101206008810081288148A1103208A1588108A11FA
:1012160029208A1588148A1103208A158810081631
:1012260088148A1103208A1588108A1129208A15A4
:10123600081288148A1103208A158810881708173F
:101246008816081688148A1103208A1588108A11B0
:0812560029208A156F1408001D
:10125E008A11CA278A150430831603138600831257
:10126E008601C03083169F0003308500B320013005
:10127E008316C6008A1187208A150C308316C60085
:10128E008A1187208A1501308316B4000130B5000B
:10129E002130B6006C20E8308316C6000330C7003C
:1012AE008A1167208A15013083160313C6008A112E
:1012BE0087208A150C308316C6008A1187208A155E
:1012CE00E8308316C6000330C7008A1167208A15DE
:1012DE0083120313E501E6018316A001A101831217
:1012EE00E701E801E901EA01ED01EE0180306E0649
:1012FE00F00080307002031D862902306D02031843
:10130E00A22900306E06031D8E2900306D06031DC6
:10131E0093298A118F278A1500306E06031D99298D
:10132E0001306D06031D9E298A115C278A15ED0A70
:10133E000319EE0A7D298A1119258A152008143CF5
:10134E00F1002108031C013EF201F2028030F00090
:10135E00803072067002031DB6297108073C03180F
:10136E008B2A0030F4000030F5004830F600833050
:10137E00F70083126708F0006808F1006908F200B0
:10138E006A08F3008A11C7238A150130031800304A
:10139E00F000700803198A2A6608003C031DD9293B
:1013AE006508963C03188A2A67088316B4008312D0
:1013BE0068088316B500831269088316B600831277
:1013CE006A088316B700A230B8008A1156258A150E
:1013DE00A230B4008A1163278A150130B40001309F
:1013EE00B5005130B6006C2002308316B4000130C7
:1013FE00B500A230B6006C2088308316C6001330BC
:10140E00C7008A1167208A15013083160313C600A0
:10141E008A1187208A150C308316C6008A11872000
:10142E008A1565088316B400831266088316B50004
:10143E00A630B6000020A630B4008A1163278A15A4
:10144E000130B4000130B5004630B6006C200230D9
:10145E008316B4000130B500A630B6006C2088307B
:10146E008316C6001330C7008A1167208A15013013
:10147E0083160313C6008A1187208A150C30831633
:10148E00C6008A1187208A1583162008B400210809
:10149E00B500AD30B6000020AD30B4008A11632720
:1014AE008A150130B4000130B5005B30B6006C20F7
:1014BE0002308316B4000130B500AD30B6006C209A
:1014CE0088308316C6001330C7008A1167208A152C
:1014DE00013083160313C6008A1187208A150C303B
:1014EE008316C6008A1187208A15861558308316F2
:1014FE00C6001B30C7008A1167208A15F730831289
:10150E00031386056F29382B83126708F0006808CD
:10151E00F1006908F2006A08F3008A118B228A151D
:10152E0070088316B4007108B500A230B600002012
:10153E00A230B4008A1163278A150130B40001303D
:10154E00B5005630B6006C2002308316B400013060
:10155E00B500A230B6006C2088308316C60013305A
:10156E00C7008A1167208A15013083160313C6003F
:10157E008A1187208A150C308316C6008A1187209F
:10158E008A1565088316B400831266088316B500A3
:10159E00A630B6000020A630B4008A1163278A1543
:1015AE000130B4000130B5003530B6006C20023089
:1015BE008316B4000130B500A630B6006C2088301A
:1015CE008316C6001330C7008A1167208A150130B2
:1015DE0083160313C6008A1187208A150C308316D2
:1015EE00C6008A1187208A1583162008B4002108A8
:1015FE00B500AD30B6000020AD30B4008A116327BF
:10160E008A150130B4000130B5002B30B6006C20C5
:10161E0002308316B4000130B500AD30B6006C2038
:10162E0088308316C6001330C7008A1167208A15CA
:10163E00013083160313C6008A1187208A150C30D9
:10164E008316C6008A1187208A15F73086058617FD
:10165E00D0308316C6000730C7008A1167208A155E
:06166E006F296F29392BE2
:0C167A00483445344C344C344F340034B8
:081686004E3461344E3400348F
:10168E00443449345334543441344E344334453461
:04169E003D340034A3
:1016A2004D346F3469347334743475347234653440
:0616B2003A34203400343C
:0816B80049344E34463400347D
:0416C000303400348E
:1016C4004D346F346934733474347534723465341E
:0616D4003A34203400341A
:0A16DA00543465346D34703400346C
:0A16E400543465346D347034003462
:1016EE00443449345334543441344E344334453401
:0416FE003D34003443
:02400E004A2F37
:00000001FF
